:1000000012C0189518951895189518951895189563
:100010001895189518951895189518951895189578
:100020001895189518958FED8DBFC8EBE0EA4E2E08
:10003000DD275D2EA89584B7082E877F84BF88E1D1
:10004000992781BD91BDEEE7F0E0A0E6B0E08827FA
:100050008D933197E9F7662480E081BB8FEF87BBF2
:1000600074B7777F74BF8EE181BD86E081BD70E09B
:1000700078BB80E08093600080E08093610080E046
:1000800080936200829903C082E08093610088EED1
:1000900093E011D1A0E30C9102FB81E00EF080E02F
:1000A0008F93A0E30C9103FB81E00EF080E09F9121
:1000B00089238F9300916100023081E009F080E094
:1000C0009F918923882309F404C081E08093610013
:1000D00003C080E080936100A0E30C9102FB81E00B
:1000E0000EF080E08F9300916100003081E009F014
:1000F00080E09F918923882309F403C082E796E07A
:10010000DAD081B5886081BDA0E30C9101FB81E06C
:100110000EF080E08F93009160000E3081E008F0D7
:1001200080E09F918923882309F404C0A0E68C9184
:100130008F5F8C93819903C080E0809360008299E7
:1001400004C0C79A80E080936100A0E30C9102FB99
:1001500081E00EF080E08F9300916100003081E03B
:1001600009F080E09F9189238F9300916300003014
:1001700081E009F080E09F918923882309F401C080
:10018000C798A0E30C9103FB81E00EF480E08F930D
:1001900000916100003081E009F080E09F918923A7
:1001A000882309F426C0009160000E3081E009F038
:1001B00080E08F93A0E30C9102FB81E00EF080E0E1
:1001C0009F918923882309F401C0C69A0091600099
:1001D000003081E009F080E08F93A0E30C9102FBF6
:1001E00081E00EF480E09F91892B882309F401C0FF
:1001F000C698A0E30C9103FB81E00EF080E08F93A2
:1002000000916100003081E009F080E09F91892336
:10021000882309F406C0829B01C0C69A829901C056
:10022000C69800916100013081E009F080E08F9371
:1002300000916200003081E009F080E09F91892305
:10024000882309F403C080E5809362000091610077
:10025000003009F003C080E08093620000916200EA
:10026000003509F001C0C79A00916200083209F018
:1002700001C0C798009162000B3109F001C0C69A15
:10028000009162000D3009F001C0C69880916200B3
:10029000815080936200A89589E190E00CD034CF22
:1002A000F894FFCF3197F1F70895689462F80895B4
:1002B000E89462F80895EF93FF93EE27E82BE92B7B
:1002C00031F0E0EDF7E03197F1F70197D1F7FF91C9
:0402D000EF9108950D
:00000001FF
