:1000000012C0189518951895189518951895189563
:100010001895189518951895189518951895189578
:100020001895189518958FED8DBFC8EBE0EA4E2E08
:10003000DD275D2EA89584B7082E877F84BF88E1D1
:10004000992781BD91BDEEE7F0E0A0E6B0E08827FA
:100050008D933197E9F7662480E081BB8FEF87BBF2
:1000600074B7777F74BF8EE181BD86E081BD70E09B
:1000700078BB81B5886081BD829901C0C79A829B97
:1000800001C0C798839938C0A0E30C9100FB81E0C0
:100090000EF480E08F93A0E30C9101FB81E00EF061
:1000A00080E09F9189238F93A0E30C9102FB81E074
:1000B0000EF080E09F918923882309F401C0C69A3D
:1000C000A0E30C9100FB81E00EF080E08F93A0E3B1
:1000D0000C9101FB81E00EF480E09F91892B8F93BE
:1000E000A0E30C9102FB81E00EF480E09F91892B4C
:1000F000882309F401C0C698839B26C0A0E30C9115
:1001000000FB81E00EF480E08F93A0E30C9102FBF2
:1001100081E00EF080E09F918923882309F401C0DB
:10012000C69AA0E30C9100FB81E00EF080E08F9373
:10013000A0E30C9102FB81E00EF480E09F91892BFB
:10014000882309F401C0C698A89581E090E00CD0FE
:1001500093CFF894FFCF3197F1F70895689462F840
:100160000895E89462F80895EF93FF93EE27E82B43
:10017000E92B31F0E0EDF7E03197F1F70197D1F796
:06018000FF91EF910895CC
:00000001FF
