:1000000012C0189518951895189518951895189563
:100010001895189518951895189518951895189578
:100020001895189518958FED8DBFC0ECE8EB4E2E06
:10003000DD275D2EA89584B7082E877F84BF88E1D1
:10004000992781BD91BDEEE7F0E0A0E6B0E08827FA
:100050008D933197E9F7662480E081BB8FEF87BBF2
:1000600074B7777F74BF8EE181BD86E081BDBB9A96
:1000700081EA8FBD81E08EBD70E078BBBB9ABC9AEF
:100080008FEF90E090934B0080934A008FEF90E0C9
:10009000909349008093480080E08093600080E066
:1000A0008093610080E08093620080E090E0A4E6AD
:1000B0008D939C9380E080936700709163007F77BD
:1000C0007093630080E080936600829903C082E0B1
:1000D0008093610088EE93E0EED1A0E30C9102FBE7
:1000E00081E00EF080E08F93A0E30C9103FB81E0B0
:1000F0000EF080E09F9189238F9300916100023080
:1001000081E009F080E09F918923882309F404C0ED
:1001100081E08093610003C080E08093610081B53D
:10012000886081BDA0E30C9101FB81E00EF080E0CE
:100130008F93009160000E3081E008F080E09F9185
:100140008923882309F404C0A0E68C918F5F8C93E7
:10015000819903C080E080936000A0E30C9100FBD4
:1001600081E00EF480E08F9300916600083781E013
:1001700008F080E09F918923882309F404C0A6E653
:100180008C918F5F8C93809B03C080E0809366008E
:10019000829904C0C79A80E080936100A0E30C912B
:1001A00002FB81E00EF080E08F930091610000304F
:1001B00081E009F080E09F918923882309F401C040
:1001C000C798A0E30C9103FB81E00EF480E08F93CD
:1001D00000916100003081E009F080E09F91892367
:1001E000882309F43BC0009160000E3081E009F0E3
:1001F00080E08F9300916600083781E009F080E08D
:100200009F9189238F93A0E30C9102FB81E00EF074
:1002100080E09F918923882309F407C0C69A80E073
:1002200090E090934B0080934A0000916000003072
:1002300081E009F080E08F93A0E30C9102FB81E064
:100240000EF480E09F91892B882309F407C0C6989B
:100250008FEF90E090934B0080934A00A0E30C91C5
:1002600003FB81E00EF080E08F930091610000308D
:1002700081E009F080E09F918923882309F422C05E
:1002800000916600083781E009F080E08F93A0E3D9
:100290000C9102FB81E00EF080E09F91892388237E
:1002A00009F407C0C69A8BEE90E090934B008093C0
:1002B0004A00829907C0C6988FEF90E090934B0058
:1002C00080934A0000916100013081E009F080E0F4
:1002D0008F9300916200003081E009F080E09F91EF
:1002E0008923882309F404C08CE380936200C59AB3
:1002F00000916100003009F004C080E0809362004A
:10030000C598009162000C3309F001C0C79A0091B2
:1003100062000E3109F001C0C798009162000631F9
:1003200009F007C0C69A80E090E09093490080935E
:10033000480000916200083009F007C0C6988FEFAE
:1003400090E0909349008093480080916200815032
:1003500080936200A0E30C9100FB81E00EF080E04E
:100360008F93A4E60D911C91003050E0150781E0B9
:1003700009F080E09F9189238F9300916100003004
:1003800081E009F080E09F9189238F93A3E68C910F
:1003900087FB81E00EF080E09F918923882309F498
:1003A0000CC080E699E0A4E68D939C93C69A80E009
:1003B00090E090934B0080934A00A4E60D911C912D
:1003C000013050E0150714F009F001C002C0A4E6A6
:1003D00062D0A4E60D911C91013050E0150709F0A0
:1003E00007C0C6988FEF90E090934B0080934A002F
:1003F00080990AC080E090E0A4E68D939C93709170
:100400006300706870936300A0E30C9100FB81E0CF
:100410000EF080E08F9300916700003081E009F0DA
:1004200080E09F9189238F9300916100003081E0EB
:1004300009F080E09F918923882309F403C088E2B2
:100440008093670000916700033209F006C080E0E6
:1004500090E0909349008093480000916700093133
:1004600009F006C08FEF90E0909349008093480018
:1004700000916700003010F009F001C005C08091C4
:100480006700815080936700A89589E190E013D0C0
:1004900049CEF894FFCFED91FC91E150F040FC93F0
:1004A000EE9308953197F1F70895689462F80895EE
:1004B000E89462F80895EF93FF93EE27E82BE92B79
:1004C00031F0E0EDF7E03197F1F70197D1F7FF91C7
:0404D000EF9108950B
:00000001FF
