:1000000012C0189518951895189518951895189563
:100010001895189518951895189518951895189578
:100020001895189518958FED8DBFC0ECE8EB4E2E06
:10003000DD275D2EA89584B7082E877F84BF88E1D1
:10004000992781BD91BDEEE7F0E0A0E6B0E08827FA
:100050008D933197E9F7662480E081BB8FEF87BBF2
:1000600074B7777F74BF8EE181BD86E081BDBB9A96
:1000700081EA8FBD81E08EBD70E078BBBB9ABC9AEF
:100080008FEF90E090934B0080934A008FEF90E0C9
:10009000909349008093480084E1809360007091C0
:1000A00061007F777093610080E090E0A2E68D931D
:1000B0009C93809148008093650080E08093640069
:1000C000A0E38C9183FB80F9809580FBA1E68C9165
:1000D00086F98C9380E090E090934B0080934A00E7
:1000E00088EE93E0D1D10027A0E38C9183FB00F947
:1000F0004427A1E68C9186FB40F9041709F006C05D
:100100007091610070687093610005C0709161002A
:100110007F77709361008FEF90E090934B00809316
:100120004A0081B5886081BDA0E30C9101FB81E0AC
:100130000EF080E08F9300916000043181E008F0C0
:1001400080E09F918923882309F404C0A0E68C9164
:100150008F5F8C93819903C080E080936000A0E35F
:100160000C9100FB81E00EF480E08F93009164001D
:10017000083781E008F080E09F918923882309F403
:1001800004C0A4E68C918F5F8C93809B03C080E0B9
:1001900080936400829901C0C79A829B01C0C7986E
:1001A00083993BC000916000043181E009F080E058
:1001B0008F9300916400083781E009F080E09F91FF
:1001C00089238F93A0E30C9102FB81E00EF080E085
:1001D0009F918923882309F407C0C69A80E090E0A4
:1001E00090934B0080934A0000916000003081E0C2
:1001F00009F080E08F93A0E30C9102FB81E00EF404
:1002000080E09F91892B882309F407C0C6988FEF5F
:1002100090E090934B0080934A00839B22C0009112
:100220006400083781E009F080E08F93A0E30C912F
:1002300002FB81E00EF080E09F918923882309F47E
:1002400007C0C69A8BEE90E090934B0080934A00D3
:10025000829907C0C6988FEF90E090934B008093EF
:100260004A00A1E68C9187FB0EF007C0C59A8BEE81
:1002700090E09093490080934800A0E30C9100FB2C
:1002800081E00EF080E08F9300916000043181E006
:1002900008F080E09F918923882309F406C080E15B
:1002A0009EE0A2E68D939C93C69AA2E60D911C91C6
:1002B000003050E0150714F009F001C01FC0A2E69D
:1002C000D3D0A1E68C9187FB0EF40DC00FEF10E0A8
:1002D000A8E44D915C91041B150B802F912F9093F6
:1002E0004B0080934A00A1E68C9187FB0EF006C07C
:1002F00080E090E090934B0080934A00A0E30C9143
:1003000000FB81E00EF080E08F93A2E60D911C913E
:10031000003050E0150781E009F080E09F918923CB
:10032000882309F407C0C6988FEF90E090934B00A4
:1003300080934A00A0E30C9100FB81E00EF480E082
:100340008F93A2E60D911C91003050E0150780E0DC
:1003500014F009F081E09F918923882309F40CC0EF
:1003600080E090E0A2E68D939C93C6988FEF90E09A
:1003700090934B0080934A00A0E30C9100FB81E036
:100380000EF080E08F93A1E68C9187FB81E00EF464
:1003900080E09F918923882309F410C000916500B3
:1003A000003009F003C081E0809366000091650091
:1003B0000F3F09F003C082E080936600A0E30C9138
:1003C00000FB81E00EF480E08F93A1E68C9187FB27
:1003D00081E00EF480E09F918923882309F40DC009
:1003E0008FEF90E0909349008093480080914800FF
:1003F0008093650080E08093660000916600013084
:1004000009F013C0A5E68C918B5F8C93A5E68C91C7
:1004100099279093490080934800009165000F3F11
:1004200009F003C080E0809366000091660002300E
:1004300009F013C0A5E68C9185508C93A5E68C91AC
:1004400099279093490080934800009165000030FF
:1004500009F003C080E080936600A89589E190E0F0
:1004600013D062CEF894FFCFED91FC91E150F040B3
:10047000FC93EE9308953197F1F70895689462F82C
:100480000895E89462F80895EF93FF93EE27E82B20
:10049000E92B31F0E0EDF7E03197F1F70197D1F773
:0604A000FF91EF910895A9
:00000001FF
